:03000000020008F3
:0300610002000397
:050003001206E680FE7C
:0C006400E582900021F0FFBF0202800145
:01007000226D
:0E007100900020E0FFA2E3E43375F014A4FE3B
:0E007F00ADF0EFC4540175F032A42EFEED3545
:0E008D00F0FDEFA2E5E43375F064A42EFEED65
:0E009B0035F0FDEF2323540175F0FAA42EFE7C
:0E00A900ED35F0FDEF2354019000EBF0A3E4E1
:0E00B700F09001F4C007C006C005121B61AB3B
:0E00C50082AC83D005D006D007EB2EFEEC3DBA
:0E00D300FD7C00EFF4FFECF4FC900051EF54C4
:0E00E10001F075820CC007C006C005C00412F5
:0E00EF000D14D004D005D006D007900051EFBC
:0E00FD00035401F075820BC007C006C005C099
:0D010B0004120D14D004D005D006D00790CA
:0E0118000051EF03035401F075820AC006C0C7
:0D01260005120D14D005D0068E828D8312B7
:0C013300075575820C120CAD75820B1282
:08013F000CAD75820A020CAD43
:0B014700E582900023F0900024F0906F
:080152000022E0900025F012EC
:0A015A001B33AF82900026EFF090F7
:0E01640000D07403F0A3E4F09000D27401F018
:0901720090002475F00012195EE2
:0E017B009000B4E4F0A3F0A3F09000B7F0A35E
:0E018900E4F09000B97401F07582FF12177354
:0E019700E58220E5219000B4E4F0A3F0A3F08F
:0E01A5009000B7F0A3E4F09000B97401F0757B
:0A01B30082FF121773E58230E4BEEC
:0E01BD009000B4E4F0A3F0A3F09000B7F0A31C
:0E01CB00E4F09000B97401F07582FF12177312
:0801D900E58220E5030202C9E2
:0E01E1009000B4E4F0A3F0A3F09000B7F0A3F8
:0E01EF00E4F09000B97401F07582E21217730B
:0E01FD009000B4E4F0A3F0A3F09000B7F0A3DC
:0E020B00E4F09000B97401F07582E1121773EF
:0E0219001212E175820112156E7C007D007ECE
:03022700007F0055
:0E022A00C3EC9488ED9413EE9400EF94005012
:0E0238004B9000B4E4F0A3F0A3F09000B7F0F8
:0E024600A3E4F09000B97401F07582FFC007C8
:0E025400C006C005C004121773E582D004D0A6
:0C02620005D006D00730E6047B018002C6
:02026E007B0013
:0E027000EB701100000CBC00090DBD00050E66
:04027E00BE00A90F06
:0202820080A654
:0E0284009000B4E4F0A3F0A3F09000B7F0A354
:0E029200E4F09000B97401F07582FF1217734A
:0E02A000E58230E6249000977403F0A3E4F0AA
:0A02AE0090002475F00012149790E0
:0902B8000024E0FF900025E09015
:0802C1000020F08F821200649E
:0E02C9009000B4E4F0A3F0A3F09000B7F0A30F
:0E02D700E4F09000B97401F07582E212177322
:0E02E5009000B4E4F0A3F0A3F09000B7F0A3F3
:0E02F300E4F09000B97401F07582E112177307
:060301001212E10215D604
:0D03070090002774B8F09000287425F09045
:0C031400002974B9F090002A74E1F09008
:0C032000002B74BDF090002C74D9F090FC
:0C032C00002D7402F090002E7486F090FA
:0C033800002F74D0F090003074EEF01232
:08034400176C900053E4F090E7
:0C034C0000547403F09000557403F0900E
:0C03580000567403F0900057741FF090E2
:0C03640000587460F09000597426F0906E
:07037000005A742CF0A37485
:0903770000F0A3E4F090005D74B5
:0A03800027F0A37400F0A3E4F0904E
:0C038A00006074C3F090006174C4F09037
:0C039600006274C5F090006374C6F09023
:0703A2000064742CF0A37449
:0C03A90000F0A3E4F09000677403F090F3
:0B03B50000687403F0900069E4F09011
:0803C000006AF090006BF09060
:0903C800006CF090006DE4F0906F
:0903D100006EF075820E020D337E
:0B03DA00900031E4F0900032F07F0052
:0303E500BF08004E
:0A03E8005027EF2400F582E43400F2
:0B03F200F583E0FE8FF005F0EE8002C6
:0203FD0025E0F9
:0E03FF00D5F0FBFE900031E0FD900031EE2DB8
:04040D00F00F80D498
:020411007F006A
:03041300BF08001F
:0B041600502974102F2400F582E434FC
:0C04210000F583E0FE8FF005F0EE800295
:02042D0025E0C8
:0E042F00D5F0FBFE900032E0FD900032EE2D85
:04043D00F00F80D26A
:0C044100900031E0FFBF0711120307908C
:0B044D000032E0900022F075820102F6
:0204580001475A
:01045A00227F
:02045B007F0020
:03045D00BF0800D5
:0A0460005021EF2400F582E434007F
:0C046A00F583E0FE74082F2400F582E406
:0C0476003400F583E0FDEEB505310F8089
:01048200DA9F
:020483007F00F8
:03048500BF0800AD
:0B048800502474102F2400F582E4348F
:0A04930000F583E0FE74182F24002A
:0C049D00F582E43400F583E0FDEEB505C7
:0204A90001222E
:0304AB000F80D7E8
:0304AE000203DA6C
:0104B1002228
:0C04B200758206120C19E582FFB40100EF
:0E04BE00E433FF900028C0071207CDD0078F4F
:0204CC0082228A
:0D04CE009000337401F0900034E4F0A3F0CE
:0E04DB00900033E0FF6030900034E0FEA3E0BC
:0E04E900FFC3740C9EE49F4020C007C00612A3
:0E04F70004B2AD82D006D007900033EDF07C49
:0D05050000900034ED2EF0EC3FA3F080C913
:0E051200900034E0FEA3E0FFC3740C9EE49F53
:0A0520004008EE9408EF940050012B
:01052A0022AE
:03052B0002045B6C
:02052E007F004C
:03053000BF2000E9
:05053300400302062553
:0D05380090003A7401F0900036E4F0A3F05A
:0E05450090003AE0FE6034900036E0FDA3E046
:0E055300FEC3740C9DE49E4024C007C006C089
:0D056100051204B2AC82D005D006D0079080
:0E056E00003AECF07B00900036EC2DF0EB3EF6
:04057C00A3F080C5A3
:0E058000900036E0FDA3E0FEC3740C9DE49EE7
:0A058E004008ED9408EE94005001BF
:010598002240
:07059900900038E4F0A3F02C
:0E05A00090003AE0FE703B900038E0FDA3E0D2
:0E05AE00FEC374219DE49E402BC007C006C012
:0D05BC00051204B2AC82D005D006D0079025
:0805C900003AECF0ECB4010073
:0E05D100E433FC7B00900038EC2DF0EB3EA3F1
:0305DF00F080BEEB
:0E05E200900038E0FDA3E0FEC374219DE49E6E
:0E05F000401CED9416EE9400E433FC6008C34A
:0705FE0074099DE49E400911
:09060500C3ED9406EE94005001CF
:01060E0022C9
:0A060F00EF2400F582E43400F583C7
:04061900ECB401003C
:08061D00E433FCF00F0205308C
:030625000204CEFE
:0E06280090003B7401F090003CE4F0A3F090D1
:06063600003EF0A3E4F019
:0E063C0090003BE0FF603090003EE0FEA3E047
:0E064A00FFC3745D9EE49F4020C007C00612EF
:0E06580004B2AD82D006D00790003BEDF07CDE
:0D0666000090003EED2EF0EC3FA3F080C9A7
:0E06730090003EE0FEA3E0FFC3745D9EE49F96
:0A0681004008EE943EEF9400500193
:01068B00224C
:0E068C0090003BE0FF703790003CE0FEA3E0E2
:0E069A00FFC3745D9EE49F4027C007C0061298
:0E06A80004B2AD82D006D00790003BEDF0ED1D
:0306B600B401008C
:0E06B900E433FD7C0090003CED2EF0EC3FA3FE
:0306C700F080C2FE
:0E06CA0090003CE0FEA3E0FFC3745D9EE49F41
:0A06D8004008EE943EEF940050013C
:0106E20022F5
:0306E30002052EDF
:0E06E600740755ADFFBF070B758201121A177E
:0506F400E5AD30E6FB5E
:0E06F90075AF1A75AF00E580758000E590754D
:0E07070090009000467403F075820C12080EEC
:0D0715009000467403F075820B12080E90E0
:0C07220000467403F075820A12080E9065
:0E072E000046E4F075820612080E7582041271
:0C073C001AC075A400120628900040129C
:080748001AEC758206121AC0BA
:0507500075A40180FB0F
:0E075500AF83E582900040F0A3EFF0900040EB
:09076300E0FEA3E0FF7C007D0034
:0E076C00C3EC9EED9F501D9003E8C007C00631
:0E077A00C005C0041207CDD004D005D006D0B3
:08078800070CBC00DF0D80DC52
:010790002246
:0E079100AF83E582900042F0A3EFF0900042AB
:09079F00E0FEA3E0FF7C007D00F8
:0E07A800C3EC9EED9F501D9003E8C007C006F5
:0E07B600C005C004120755D004D005D006D0EF
:0807C400070CBC00DF0D80DC16
:0107CC00220A
:0E07CD00AF83E582900044F0A3EFF09000446B
:0907DB00E0FEA3E0FF4E700122D4
:0507E4001EBEFF011F15
:0E07E900900044EEF0A3EFF0900044E0FEA379
:0607F700E0FF7C007D0024
:0E07FD00C3EC9EED9F500900000CBC00F30DF4
:02080B0080F07B
:01080D0022C8
:0E080E00E582900047F0FF24F85003020890A6
:0E081C00900046E0FE30E04CEE30E11574072F
:09082A005FF5F005F07401800295
:0208330025E0BE
:08083500D5F0FBFD42808014A8
:0B083D0074075FF5F005F07401800205
:0208480025E0A9
:07084A00D5F0FBF4FD528024
:0E08510074075FFD74075DFC74E05E4CF59E5D
:08085F008DF005F07401800228
:0208670025E08A
:07086900D5F0FBF4529322CD
:0E08700074075FFD74075D4410FC74E05E4C7D
:0A087E00F59E8DF005F07401800274
:0208880025E069
:06088A00D5F0FB429322B1
:08089000EF24F0500302090CF3
:0E089800900046E0FE30E04CEE30E1157407B3
:0908A6005FF5F005F07401800219
:0208AF0025E042
:0808B100D5F0FBFD429080141C
:0B08B90074075FF5F005F07401800289
:0208C40025E02D
:0708C600D5F0FBF4FD529098
:0E08CD0074075FFD74075DFC74E05E4CF59FE0
:0808DB008DF005F074018002AC
:0208E30025E00E
:0708E500D5F0FBF452942250
:0E08EC0074075FFD74075D4410FC74E05E4C01
:0A08FA00F59F8DF005F074018002F7
:0209040025E0EC
:06090600D5F0FB42942233
:08090C00EF24E8500302098802
:0E091400900046E0FE30E04CEE30E115740736
:090922005FF5F005F0740180029C
:02092B0025E0C5
:08092D00D5F0FBFD42A080148F
:0B09350074075FF5F005F0740180020C
:0209400025E0B0
:07094200D5F0FBF4FD52A00B
:0E09490074075FFD74075DFC74E05E4CF5976B
:080957008DF005F0740180022F
:02095F0025E091
:07096100D5F0FBF4529522D2
:0E09680074075FFD74075D4410FC74E05E4C84
:0A097600F5978DF005F07401800282
:0209800025E070
:06098200D5F0FB429522B6
:0E098800EF24E14073900046E0FE30E04CEEBC
:0E09960030E11574075FF5F005F07401800282
:0209A40025E04C
:0809A600D5F0FBFD42B0801406
:0B09AE0074075FF5F005F07401800293
:0209B90025E037
:0709BB00D5F0FBF4FD52B082
:0E09C20074075FFD74075DFC74E05E4CF58FFA
:0809D0008DF005F074018002B6
:0209D80025E018
:0709DA00D5F0FBF452962258
:0E09E10053070774075F4410FD74E05E4DF588
:0909EF008F8FF005F07401800205
:0209F80025E0F8
:0609FA00D5F0FBFF429660
:010A000022D3
:0E0A0100E582900049F0FF24F8402274075F60
:090A0F00FE8EF005F07401800276
:020A180025E0D7
:0E0A1A00D5F0FB4293530607900048E0FD74B0
:060A2800E05D4EF59E2288
:0E0A2E00EF24F0402274075FFE8EF005F07496
:030A3C0001800234
:020A3F0025E0B0
:0E0A4100D5F0FB4294530607900048E0FD7488
:060A4F00E05D4EF59F2260
:0E0A5500EF24E8402274075FFE8EF005F07477
:030A63000180020D
:020A660025E089
:0E0A6800D5F0FB4295530607900048E0FD7460
:060A7600E05D4EF5972241
:0E0A7C00EF24E140205307078FF005F07401CE
:020A8A008002E8
:020A8C0025E063
:0E0A8E00D5F0FB4295530707900048E0FE7438
:050A9C00E05E4FF58F44
:010AA1002232
:0E0AA200E58290004BF0FF24F8402374075FBC
:090AB000FE8EF005F074018002D5
:020AB90025E036
:0E0ABB00D5F0FBF4529353060790004AE0FD7D
:070AC90074E05D4EF59E2272
:0E0AD000EF24F0402374075FFE8EF005F074F3
:030ADE0001800292
:020AE10025E00E
:0E0AE300D5F0FBF4529453060790004AE0FD54
:070AF10074E05D4EF59F2249
:0E0AF800EF24E8402374075FFE8EF005F074D3
:030B060001800269
:020B090025E0E5
:0E0B0B00D5F0FBF4529553060790004AE0FD2A
:070B190074E05D4EF5972228
:0E0B2000EF24E140215307078FF005F0740128
:020B2E00800243
:020B300025E0BE
:0E0B3200D5F0FBF4529653070790004AE0FE00
:060B400074E05E4FF58F2A
:010B4600228C
:0E0B4700E58290004CF0FF24F8401474075F24
:080B5500F5F005F074018002C7
:020B5D0025E091
:070B5F00D5F0FBF4528022E7
:0E0B6600EF24F0401474075FF5F005F0740101
:020B74008002FD
:020B760025E078
:070B7800D5F0FBF4529022BE
:0E0B7F00EF24E8401474075FF5F005F07401F0
:020B8D008002E4
:020B8F0025E05F
:070B9100D5F0FBF452A02295
:0E0B9800EF24E1401474075FF5F005F07401DE
:020BA6008002CB
:020BA80025E046
:070BAA00D5F0FBF4FF52B08F
:010BB1002221
:0E0BB200E58290004DF0FF24F8401374075FB9
:080BC000F5F005F0740180025C
:020BC80025E026
:060BCA00D5F0FB62802261
:0E0BD000EF24F0401374075FF5F005F0740198
:020BDE00800293
:020BE00025E00E
:060BE200D5F0FB62902239
:0E0BE800EF24E8401374075FF5F005F0740188
:020BF60080027B
:020BF80025E0F6
:060BFA00D5F0FB62A02211
:0E0C0000EF24E1401374075FF5F005F0740176
:020C0E00800262
:020C100025E0DD
:060C1200D5F0FBFF62B00B
:010C180022B9
:0C0C1900E58290004EF090004FE4F09057
:0E0C2500004EE0FF24F8401974075FF5F0055B
:050C3300F074018002D5
:020C380025E0B5
:0C0C3A00D5F0FBFE90004F5580F0805874
:0E0C4600EF24F0401974075FF5F005F074011B
:020C540080021C
:020C560025E097
:0C0C5800D5F0FBFE90004F5590F0803A64
:0E0C6400EF24E8401974075FF5F005F0740105
:020C72008002FE
:020C740025E079
:0C0C7600D5F0FBFE90004F55A0F0801C54
:0E0C8200EF24E1401774075FF5F005F07401F0
:020C90008002E0
:020C920025E05B
:0A0C9400D5F0FBFF90004F55B0F0C3
:0B0C9E0090004FE0FF6004758201220F
:040CA900758200222E
:0E0CAD00E582900050F0FF24F8401374075FBA
:080CBB00F5F005F07401800260
:020CC30025E02A
:060CC500D5F0FB42802285
:0E0CCB00EF24F0401374075FF5F005F074019C
:020CD900800297
:020CDB0025E012
:060CDD00D5F0FB4290225D
:0E0CE300EF24E8401374075FF5F005F074018C
:020CF10080027F
:020CF30025E0FA
:060CF500D5F0FB42A02235
:0E0CFB00EF24E1401374075FF5F005F074017B
:020D0900800266
:020D0B0025E0E1
:060D0D00D5F0FBFF42B02F
:010D130022BD
:0E0D1400E582900052F0900051E0FF600990DF
:080D22000052E0F582020CAD65
:090D2A00900052E0F582020B4733
:0A0D3300E58290006FF012176C903B
:080D3D000054E0900070F090FA
:070D450000C57470F0A374F7
:0C0D4C0000F0A3E4F09000C87401F0A3D4
:0D0D5800E4F07582011218E0900055E09063
:070D65000070F09000C5745E
:0A0D6C0070F0A37400F0A3E4F0900F
:0E0D760000C87401F0A3E4F07582021218E0C8
:090D8400900056E0900070F09020
:070D8D0000C57470F0A374AF
:0C0D940000F0A3E4F09000C87401F0A38C
:0D0DA000E4F07582031218E0900057E09017
:070DAD000070F09000C57416
:0A0DB40070F0A37400F0A3E4F090C7
:0E0DBE0000C87401F0A3E4F07582041218E07E
:090DCC00900058E0900070F090D6
:070DD50000C57470F0A37467
:0C0DDC0000F0A3E4F09000C87401F0A344
:0D0DE800E4F07582051218E0900059E090CB
:070DF5000070F09000C574CE
:0A0DFC0070F0A37400F0A3E4F0907F
:0E0E060000C87401F0A3E4F07582061218E033
:0E0E140090005AE0FDA3E0FEA3E0FFED4E606B
:0E0E2200189000A97405F0A3E4F09000ABF066
:0B0E30008D828E838FF01216E7803455
:0D0E3B0090007074E7F090007174E7F09083
:0C0E4800007274E7F090007374E7F09003
:0E0E5400007474E7F09000A97405F0A3E4F0B8
:0B0E62009000ABF090007075F00012E3
:020E6D0016E786
:0E0E6F0090005DE0FDA3E0FEA3E0FFED4E600D
:0E0E7D001A9000A97405F0A3E4F09000AB7485
:0D0E8B0001F08D828E838FF01216E7803605
:0D0E980090007074C2F090007174C2F09070
:0C0EA500007274C2F090007374C2F090F0
:0E0EB100007474C2F09000A97405F0A3E4F080
:0D0EBF009000AB7401F090007075F000120F
:020ECC0016E727
:090ECE00900060E0900070F090CB
:0E0ED70000A97401F0A3E4F09000AB7402F0E7
:0A0EE50090007075F0001216E790FF
:080EEF000061E0900070F0903A
:0E0EF70000A97401F0A3E4F09000AB7403F0C6
:0A0F050090007075F0001216E790DE
:080F0F000062E0900070F09018
:0E0F170000A97401F0A3E4F09000AB7404F0A4
:0A0F250090007075F0001216E790BE
:080F2F000063E0900070F090F7
:0E0F370000A97401F0A3E4F09000AB7405F083
:0A0F450090007075F0001216E7909E
:0E0F4F000064E0FDA3E0FEA3E0FFED4E6014A1
:0E0F5D009000AF7405F0A3E4F08D828E838FB8
:060F6B00F0121730803087
:0D0F710090007074E7F090007174E7F0904C
:0C0F7E00007274E7F090007374E7F090CC
:0E0F8A00007474E7F09000AF7405F0A3E4F07B
:090F980090007075F00012173092
:090FA100900067E0900070F090F0
:070FAA0000C57470F0A37490
:0C0FB10000F0A3E4F09000C87401F0A36D
:0D0FBD00E4F07582111218E0900068E090D9
:070FCA000070F09000C574F7
:0A0FD10070F0A37400F0A3E4F090A8
:0E0FDB0000C87401F0A3E4F07582121218E051
:090FE900900069E0900070F090A6
:070FF20000C57470F0A37448
:0C0FF90000F0A3E4F09000C87401F0A325
:0D100500E4F07582131218E090006AE0908C
:071012000070F09000C574AE
:0A10190070F0A37400F0A3E4F0905F
:0E10230000C87401F0A3E4F07582141218E006
:0910310090006BE0900070F0905B
:07103A0000C57470F0A374FF
:0C10410000F0A3E4F09000C87401F0A3DC
:0D104D00E4F07582151218E090006CE09040
:07105A000070F09000C57466
:0A10610070F0A37400F0A3E4F09017
:0E106B0000C87401F0A3E4F07582161218E0BC
:0910790090006DE0900070F09011
:0710820000C57470F0A374B7
:0C10890000F0A3E4F09000C87401F0A394
:0D109500E4F075821C1218E090006EE090EF
:0710A2000070F09000C5741E
:0A10A90070F0A37400F0A3E4F090CF
:0E10B30000C87401F0A3E4F075821D1218E06D
:0E10C10090006FE0FF30E10F900053E0FE90D2
:0910CF00008DEFF08E820213DDAA
:0510D8008F8202137E6F
:0D10DD00E582900077F0900078740AF090A2
:0E10EA000076E0FF60089000797401F0800548
:0510F800900079E4F016
:0E10FD00900077E0FFBF0106900078740BF0C2
:0B110B00900078E0FF900079E0FE907B
:0B1116000075E0FD9000537401F090A4
:0B1121000054EEF09000557403F090B5
:0C112C0000567403F09000577403F0901C
:0C11380000587402F0900059740FF09001
:0E114400005AE4F0A3F0A3F090005DF0A3E4E5
:0E115200F0A3F090006074C3F090006174C4CC
:0E116000F090006274C5F090006374C6F090C9
:0E116E000064E4F0A3F0A3F0900067EDF090B1
:09117C000068E4F0900069F090B5
:08118500006AF090006BF0908D
:09118D00006CE4F090006DF0909C
:08119600006EF08F82020D33A0
:0A119E00E58290007BF012176C90C0
:0811A800007CE4F09000C57426
:0A11B0007CF0A37400F0A3E4F090BB
:0E11BA0000C87401F0A3E4F07582011218E081
:0811C8009000C5747CF0A374D3
:0C11D00000F0A3E4F09000C87401F0A34C
:0E11DC00E4F07582041218E090007C7408F0B4
:0811EA009000C5747AF0A374B3
:0C11F20000F0A3E4F09000C87401F0A32A
:0E11FE00E4F07582111218E090007BE0FF60B3
:07120C000690007C7409F05C
:0C12130090007CE090008DF075820102DC
:02121F0013DDDD
:0E122100AFF0AE83E58290007DF0A3EEF0A367
:0C122F00EFF0900080E4F090007DE0F50E
:08123B0009A3E0F50AA3E0F5A8
:031243000B7C0021
:0C124600EC24E8407090008F7481F0A34D
:0C1252007400F0A3E4F09000927405F02A
:0E125E00A3E4F08C82C004121433D0048C037D
:05126C00E4BC0A0104CE
:09127100F508900080E0F9780016
:03127A00B80500B4
:0A127D005033C003E92509FAE435F7
:061287000AFBAF0BE82496
:0A128D0081F582E43400F583E0FEF1
:0D1297008A828B838FF0121B4809D003E57B
:0812A400087008BB0B02800377
:0312AC00BB100371
:0312AF000880C8EC
:0912B200900080E9F00C021246E4
:0112BB002210
:0A12BC00E582900086F09000C574F2
:0A12C60086F0A37400F0A3E4F0909A
:0E12D00000C87401F0A3E4F07582071218E064
:0312DE00C2C12268
:0A12E1009000877470F09000C5744F
:0A12EB0087F0A37400F0A3E4F09074
:0E12F50000C87401F0A3E4F07582071218E03F
:03130300C2C12242
:0813060090008F7488F0A374BD
:0C130E0000F0A3E4F09000927401F0A342
:0E131A00E4F0758209121433900088E0FF3071
:06132800E0047F018002D9
:02132E007F003E
:031330008F822287
:0A133300C2E890008F7489F0A374E3
:0C133D0000F0A3E4F09000927401F0A313
:0E134900E4F0758200121433900089E0FF205A
:03135700E101228F
:0C135A005307FD900089EFF09000C5746F
:0A13660089F0A37400F0A3E4F090F6
:0E13700000C87401F0A3E4F07582000218E0DA
:0E137E00E58290008AF0C2E890008AE054FDFB
:09138C00F09000C5748AF0A3740E
:0C13950000F0A3E4F09000C87401F0A385
:0813A100E4F07582000218E07F
:0A13A900E58290008BF090008F7435
:0A13B3008CF0A37400F0A3E4F090A6
:0E13BD0000927401F0A3E4F075820012143364
:0A13CB0090008BE0FF90008CE09092
:0813D500008DF08F820213DD90
:0E13DD00E58290008EF090008DE04402F090CA
:0713EB0000C5748DF0A3742E
:0C13F20000F0A3E4F09000C87401F0A328
:0813FE00E4F07582001218E012
:0E140600E5AD30E3FB90008DE0FF20E004C276
:03141400E8801657
:0D14170090008EE0FF600D20E80CD2E89000
:0714240000041207CD800255
:02142B00C2E815
:06142D009000010207CD52
:0E143300E582900094F0FF53071F90008FE0B9
:0E144100FCA3E0FDA3E0FE900092E0FAA3E021
:0D144F00FB9000B4ECF0A3EDF0A3EEF090E4
:0E145C0000B7EAF0A3EBF09000B97401F08F36
:04146A008202177370
:0B146E00E582900095F0FF90008F7465
:0A14790096F0A37400F0A3E4F090D5
:0E14830000927401F0A3E4F08F8212143390F3
:061491000096E0F5822246
:0E149700AFF0AE83E582900099F0A3EEF0A3D3
:0E14A500EFF0900099E0FDA3E0FEA3E0FF90C1
:0E14B3000097E0FBA3E0FC9000B4EDF0A3EE88
:0D14C100F0A3EFF09000B7EBF0A3ECF0907B
:0B14CE0000B97401F075826102177311
:0E14D900AFF0AE83E58290009CF0A3EEF0A38E
:0E14E700EFF090009CE0FDA3E0FEA3E0FF907C
:0E14F50000B4EDF0A3EEF0A3EFF09000B7749A
:0E15030001F0A3E4F09000B97401F07582606D
:031511000217734B
:0815140090008F749FF0A37496
:0C151C0000F0A3E4F09000927401F0A332
:0E152800E4F075821712143390009FE0FF303C
:06153600E0047F018002C9
:02153C007F002E
:03153E008F822277
:0815410090008F74A0F0A37468
:0C15490000F0A3E4F09000927401F0A305
:0E155500E4F07582171214339000A0E0FF300E
:06156300E1047F0180029B
:021569007F0001
:03156B008F82224A
:0A156E00E5829000A1F090008F7458
:0A157800A2F0A37400F0A3E4F090C9
:0E15820000927401F0A3E4F07582001214339D
:0E1590009000A2E0FF74015FFEBE0102802306
:0B159E009000A274014FF09000C57493
:0A15A900A2F0A37400F0A3E4F09098
:0E15B30000C87401F0A3E4F07582001218E085
:0D15C1009000A1E0FF600B20E80AD2E89046
:0515CE0000040207CD3E
:0215D300C2E86C
:0115D50022F3
:0C15D600A2E8E433FF90008F74A3F0A3A0
:0C15E2007400F0A3E4F09000927401F09B
:0E15EE00A3E4F0758200C007121433D00790FA
:0815FC0000A3E0FE20E0012243
:0E160400C2E85306FE9000A3EEF09000C574FD
:0A161200A3F0A37400F0A3E4F0902D
:0E161C0000C87401F0A3E4F0758200C007124C
:0D162A0018E0D007EF6008D2E8900004023D
:0216370007CDDD
:01163900228E
:0C163A00E5829000A4F0FFBF20028006B3
:06164600EF6003BF083352
:0E164C00758206C00712146EAE82D0075306D8
:0D165A00D1EF42069000A5EEF09000C5749F
:0A166700A5F0A37400F0A3E4F090D6
:0E16710000C87401F0A3E4F07582060218E0D0
:01167F002248
:0E168000E5829000A6F0FF24F9403375820643
:0E168E00C00712146EAE82D0075306F9EF4269
:0A169C00069000A7EEF09000C57460
:0A16A600A7F0A37400F0A3E4F09095
:0E16B00000C87401F0A3E4F07582060218E091
:0116BE002209
:0E16BF00E5829000A8F0FF2480401C9000C53A
:0A16CD0074A8F0A37400F0A3E4F089
:0D16D7009000C87401F0A3E4F075820502D4
:0216E40018E00C
:0116E60022E1
:0E16E700AFF0AE83E5829000ACF0A3EEF0A36E
:0C16F500EFF09000ABE0FF24FA5001225F
:0E170100740A2FFF9000ACE0FCA3E0FDA3E013
:0E170F00FE9000A9E0FAA3E0FB9000C5ECF00C
:0E171D00A3EDF0A3EEF09000C8EAF0A3EBF00D
:05172B008F820218E0AE
:0E173000AFF0AE83E5829000B1F0A3EEF0A31F
:0E173E00EFF09000B1E0FDA3E0FEA3E0FF900D
:0E174C0000AFE0FBA3E0FC9000C5EDF0A3EEC3
:0E175A00F0A3EFF09000C8EBF0A3ECF0758266
:04176800100218E073
:07176C0075E80275E8042294
:0E177300E5829000BAF0FF9000BBF0C2E99052
:0E17810000BC7401F0A3E4F09000BE7401F00F
:0A178F009000BB75F0001217CF9018
:0E17990000B4E0FDA3E0FEA3E0FF9000B7E087
:0E17A700FBA3E0FC9000B9E0FA9000BCEBF070
:0E17B500A3ECF09000BEEAF08D828E838FF0E0
:0C17C3001217CFD2E99000BBE0F58222A3
:0E17CF00AFF0AE83E5829000BFF0A3EEF0A372
:0E17DD00EFF09000BFE0FDA3E0FEA3E0FF9060
:0E17EB0000BEE0FC9000BCE0FAA3E0FB78003A
:0217F900790075
:0E17FB00C3E89AE99B505FC002C003E82DF5D9
:061809000CE93EF50D8F15
:05180F000E850C82852E
:061814000D83850EF012A9
:0E181A001B81FBF582C007C006C005C004C0DC
:0C18280003C002C001C0001218628582DB
:0C1834000FD000D001D002D003D004D0AF
:0D18400005D006D007D003D002EC600E8565
:06184D000C82850D83856D
:051853000EF0E50F128C
:021858001B482B
:07185A0008B8009D09809A07
:011861002264
:08186200E5829000C2F0F5E7F9
:0B186A00E5E630E2FBC2C085E7822209
:0E187500D2E89000041207CD9000641207CD57
:03188300C2E82296
:0818860090008F74C3F0A374FD
:0C188E0000F0A3E4F09000927401F0A3BD
:0E189A00E4F07582171214339000C3E0FF30A3
:0618A800E4047F01800250
:0218AE007F00B9
:0318B0008F822202
:0818B30090008F74C4F0A374CF
:0C18BB0000F0A3E4F09000927401F0A390
:0E18C700E4F07582171214339000C4E0FF3075
:0618D500E5047F01800222
:0218DB007F008C
:0318DD008F8222D5
:0E18E000E5829000CAF0FF741F5F4420FF9065
:0E18EE0000C5E0FCA3E0FDA3E0FE9000C8E012
:0E18FC00FAA3E0FB9000B4ECF0A3EDF0A3EE35
:0E190A00F09000B7EAF0A3EBF09000B9E4F023
:051918008F820217732D
:0E191D00AFF0AE83E5829000CDF0A3EEF0A314
:0E192B00EFF09000CDE0FDA3E0FEA3E0FF9002
:0E19390000CBE0FBA3E0FC9000B4EDF0A3EEC9
:0D194700F0A3EFF09000B7EBF0A3ECF090F0
:0A19540000B9E4F07582A1021773D8
:0E195E00AFF0AE83E5829000D3F0A3EEF0A3CD
:0E196C00EFF09000D3E0FDA3E0FEA3E0FF90BB
:0E197A0000D0E0FBA3E0FC9000B4EDF0A3EE83
:0D198800F0A3EFF09000B7EBF0A3ECF090AF
:0D19950000B9E4F07582A0121773AF8290C4
:0E19A20000D2E0FE600C20E80BC007121875A2
:0419B000D0078002DA
:0219B400C2E887
:0319B6008F8222FB
:0E19B900AFF0AE83E5829000D9F0A3EEF0A36C
:0E19C700EFF09000D9E0FDA3E0FEA3E0FF905A
:0E19D50000D6E0FBA3E0FC9000B4EDF0A3EE22
:0D19E300F0A3EFF09000B7EBF0A3ECF09054
:0D19F00000B9E4F07582A0121773AF829069
:0E19FD0000D8E0FEBE0107C007121875D00723
:031A0B008F8222A5
:091A0E00E5829000DCF0F5A32252
:0E1A1700E5829000DDF0AFAD5307F89000DDE2
:081A2500E0540742078FAD22D7
:0E1A2D00740755A3FF9000DEE4F0A37424F0CC
:091A3B00A374F4F0A3E4F07E00B2
:0E1A4400C3EE9F50299000DEE0FAA3E0FBA362
:0E1A5200E0FCA3E0C313FDEC13FCEB13FBEA76
:0E1A600013FA9000DEF0A3EBF0A3ECF0A3ED80
:041A6E00F00E80D224
:0E1A72009000DEE0FCA3E0FDA3E0FEA3E08C0C
:061A8000828D838EF0222E
:0E1A8600740755A3FF9000E27480F0A3743E35
:031A9400F07E00E1
:0E1A9700C3EE9F50189000E2E0FCA3E0C313E2
:0E1AA500CC13CCFD9000E2ECF0A3EDF00E802F
:011AB300E34F
:0C1AB4009000E2E0FEA3E08E82F58322A9
:0E1AC000E5829000E4F0AFAE5307F89000E42A
:081ACE00E0540742078FAE222D
:0E1AD600E5829000E5F0AFDC53070F9000E5CD
:081AE400E054F042078FDC2200
:0E1AEC00AF83E5829000E6F0A3EFF09000E6F5
:0E1AFA00E0FEA3E0FF8E048CCF8F068ECE227E
:091B0800E5829000E8F0F5A52249
:0E1B1100E5829000E9F0AFD653073F9000E95F
:081B1F00E054C042078FD622FA
:0C1B2700742055D6FFBF20F885D782221D
:0E1B33007582C0121B11121B27AF82AED65353
:071B4100067F8ED68F822281
:06003700E478FFF6D8FD9D
:080015007900E94400601B7A48
:05001D0000901BA1781A
:03002200ED75C9B0
:0A00250000E493F2A308B8000205FE
:08002F00C9D9F4DAF275C9FF2A
:0E1B480020F71030F6118883A88220F507F6EA
:051B5600A88375830067
:011B5B002267
:031B5C00F280F71D
:021B5F00F02272
:0E1B6100AA83AB828BF09000EBE0A4F8A9F011
:0E1B6F008AF0E0A429F98BF0A3E0A429F58305
:041B7D008882222216
:08003D007800E84400600A7934
:030045000075C97A
:0600480000E4F309D8FCFE
:08004E0078EDE84400600C7934
:0B00560001900000E4F0A3D8FCD9FAF0
:0300080075810FF0
:0A000B00121B9DE582600302000352
:0E1B810020F71430F6148883A88220F507E6BA
:061B8F00A883758300220B
:031B9500E280F7F4
:031B9800E49322B1
:021B9B00E02246
:041B9D00758200222B
:00000001FF
